{
  "_format": "hh-sol-artifact-1",
  "contractName": "DocumentRegistry",
  "sourceName": "contracts/DocumentRegistry.sol",
  "abi": [
    {
      "inputs": [],
      "stateMutability": "nonpayable",
      "type": "constructor"
    },
    {
      "inputs": [],
      "name": "AccessControlBadConfirmation",
      "type": "error"
    },
    {
      "inputs": [
        {
          "internalType": "address",
          "name": "account",
          "type": "address"
        },
        {
          "internalType": "bytes32",
          "name": "neededRole",
          "type": "bytes32"
        }
      ],
      "name": "AccessControlUnauthorizedAccount",
      "type": "error"
    },
    {
      "anonymous": false,
      "inputs": [
        {
          "indexed": true,
          "internalType": "bytes32",
          "name": "hash",
          "type": "bytes32"
        },
        {
          "indexed": false,
          "internalType": "string",
          "name": "cid",
          "type": "string"
        },
        {
          "indexed": true,
          "internalType": "address",
          "name": "owner",
          "type": "address"
        },
        {
          "indexed": false,
          "internalType": "uint256",
          "name": "timestamp",
          "type": "uint256"
        },
        {
          "indexed": false,
          "internalType": "uint256",
          "name": "version",
          "type": "uint256"
        },
        {
          "indexed": false,
          "internalType": "string",
          "name": "metadata",
          "type": "string"
        }
      ],
      "name": "DocumentRegistered",
      "type": "event"
    },
    {
      "anonymous": false,
      "inputs": [
        {
          "indexed": true,
          "internalType": "bytes32",
          "name": "role",
          "type": "bytes32"
        },
        {
          "indexed": true,
          "internalType": "bytes32",
          "name": "previousAdminRole",
          "type": "bytes32"
        },
        {
          "indexed": true,
          "internalType": "bytes32",
          "name": "newAdminRole",
          "type": "bytes32"
        }
      ],
      "name": "RoleAdminChanged",
      "type": "event"
    },
    {
      "anonymous": false,
      "inputs": [
        {
          "indexed": true,
          "internalType": "bytes32",
          "name": "role",
          "type": "bytes32"
        },
        {
          "indexed": true,
          "internalType": "address",
          "name": "account",
          "type": "address"
        },
        {
          "indexed": true,
          "internalType": "address",
          "name": "sender",
          "type": "address"
        }
      ],
      "name": "RoleGranted",
      "type": "event"
    },
    {
      "anonymous": false,
      "inputs": [
        {
          "indexed": true,
          "internalType": "address",
          "name": "account",
          "type": "address"
        },
        {
          "indexed": false,
          "internalType": "string",
          "name": "role",
          "type": "string"
        }
      ],
      "name": "RoleGrantedLog",
      "type": "event"
    },
    {
      "anonymous": false,
      "inputs": [
        {
          "indexed": true,
          "internalType": "bytes32",
          "name": "role",
          "type": "bytes32"
        },
        {
          "indexed": true,
          "internalType": "address",
          "name": "account",
          "type": "address"
        },
        {
          "indexed": true,
          "internalType": "address",
          "name": "sender",
          "type": "address"
        }
      ],
      "name": "RoleRevoked",
      "type": "event"
    },
    {
      "inputs": [],
      "name": "AUTORITA_ROLE",
      "outputs": [
        {
          "internalType": "bytes32",
          "name": "",
          "type": "bytes32"
        }
      ],
      "stateMutability": "view",
      "type": "function"
    },
    {
      "inputs": [],
      "name": "CERTIFICATORE_ROLE",
      "outputs": [
        {
          "internalType": "bytes32",
          "name": "",
          "type": "bytes32"
        }
      ],
      "stateMutability": "view",
      "type": "function"
    },
    {
      "inputs": [],
      "name": "DEFAULT_ADMIN_ROLE",
      "outputs": [
        {
          "internalType": "bytes32",
          "name": "",
          "type": "bytes32"
        }
      ],
      "stateMutability": "view",
      "type": "function"
    },
    {
      "inputs": [],
      "name": "MANUTENTORE_ROLE",
      "outputs": [
        {
          "internalType": "bytes32",
          "name": "",
          "type": "bytes32"
        }
      ],
      "stateMutability": "view",
      "type": "function"
    },
    {
      "inputs": [],
      "name": "TITOLARE_ROLE",
      "outputs": [
        {
          "internalType": "bytes32",
          "name": "",
          "type": "bytes32"
        }
      ],
      "stateMutability": "view",
      "type": "function"
    },
    {
      "inputs": [
        {
          "internalType": "bytes32",
          "name": "hash",
          "type": "bytes32"
        }
      ],
      "name": "getDocument",
      "outputs": [
        {
          "internalType": "string",
          "name": "cid",
          "type": "string"
        },
        {
          "internalType": "address",
          "name": "owner",
          "type": "address"
        },
        {
          "internalType": "uint256",
          "name": "timestamp",
          "type": "uint256"
        },
        {
          "internalType": "uint256",
          "name": "version",
          "type": "uint256"
        },
        {
          "internalType": "string",
          "name": "metadata",
          "type": "string"
        }
      ],
      "stateMutability": "view",
      "type": "function"
    },
    {
      "inputs": [
        {
          "internalType": "bytes32",
          "name": "role",
          "type": "bytes32"
        }
      ],
      "name": "getRoleAdmin",
      "outputs": [
        {
          "internalType": "bytes32",
          "name": "",
          "type": "bytes32"
        }
      ],
      "stateMutability": "view",
      "type": "function"
    },
    {
      "inputs": [
        {
          "internalType": "bytes32",
          "name": "role",
          "type": "bytes32"
        },
        {
          "internalType": "address",
          "name": "account",
          "type": "address"
        }
      ],
      "name": "grantRole",
      "outputs": [],
      "stateMutability": "nonpayable",
      "type": "function"
    },
    {
      "inputs": [
        {
          "internalType": "address",
          "name": "user",
          "type": "address"
        },
        {
          "internalType": "string",
          "name": "roleName",
          "type": "string"
        }
      ],
      "name": "grantUserRole",
      "outputs": [],
      "stateMutability": "nonpayable",
      "type": "function"
    },
    {
      "inputs": [
        {
          "internalType": "address",
          "name": "user",
          "type": "address"
        }
      ],
      "name": "hasCertificatoreRole",
      "outputs": [
        {
          "internalType": "bool",
          "name": "",
          "type": "bool"
        }
      ],
      "stateMutability": "view",
      "type": "function"
    },
    {
      "inputs": [
        {
          "internalType": "bytes32",
          "name": "role",
          "type": "bytes32"
        },
        {
          "internalType": "address",
          "name": "account",
          "type": "address"
        }
      ],
      "name": "hasRole",
      "outputs": [
        {
          "internalType": "bool",
          "name": "",
          "type": "bool"
        }
      ],
      "stateMutability": "view",
      "type": "function"
    },
    {
      "inputs": [
        {
          "internalType": "string",
          "name": "roleName",
          "type": "string"
        },
        {
          "internalType": "address",
          "name": "user",
          "type": "address"
        }
      ],
      "name": "hasRoleByString",
      "outputs": [
        {
          "internalType": "bool",
          "name": "",
          "type": "bool"
        }
      ],
      "stateMutability": "view",
      "type": "function"
    },
    {
      "inputs": [
        {
          "internalType": "bytes32",
          "name": "hash",
          "type": "bytes32"
        },
        {
          "internalType": "string",
          "name": "cid",
          "type": "string"
        },
        {
          "internalType": "string",
          "name": "metadata",
          "type": "string"
        }
      ],
      "name": "registerDocument",
      "outputs": [],
      "stateMutability": "nonpayable",
      "type": "function"
    },
    {
      "inputs": [
        {
          "internalType": "bytes32",
          "name": "role",
          "type": "bytes32"
        },
        {
          "internalType": "address",
          "name": "callerConfirmation",
          "type": "address"
        }
      ],
      "name": "renounceRole",
      "outputs": [],
      "stateMutability": "nonpayable",
      "type": "function"
    },
    {
      "inputs": [
        {
          "internalType": "bytes32",
          "name": "role",
          "type": "bytes32"
        },
        {
          "internalType": "address",
          "name": "account",
          "type": "address"
        }
      ],
      "name": "revokeRole",
      "outputs": [],
      "stateMutability": "nonpayable",
      "type": "function"
    },
    {
      "inputs": [
        {
          "internalType": "bytes4",
          "name": "interfaceId",
          "type": "bytes4"
        }
      ],
      "name": "supportsInterface",
      "outputs": [
        {
          "internalType": "bool",
          "name": "",
          "type": "bool"
        }
      ],
      "stateMutability": "view",
      "type": "function"
    }
  ],
  "bytecode": "0x608060405234801561001057600080fd5b506100246000801b3361005b60201b60201c565b506100557f3f8b1f7e4f51ec5eb4b7ee863240fa995908f1cfaa5e605aa1fbb36346dff4243361005b60201b60201c565b506101ca565b600061006d838361015860201b60201c565b61014d57600160008085815260200190815260200160002060000160008473ffffffffffffffffffffffffffffffffffffffff1673ffffffffffffffffffffffffffffffffffffffff16815260200190815260200160002060006101000a81548160ff0219169083151502179055506100ea6101c260201b60201c565b73ffffffffffffffffffffffffffffffffffffffff168273ffffffffffffffffffffffffffffffffffffffff16847f2f8788117e7eff1d82e926ec794901d17c78024a50270940304540a733656f0d60405160405180910390a460019050610152565b600090505b92915050565b600080600084815260200190815260200160002060000160008373ffffffffffffffffffffffffffffffffffffffff1673ffffffffffffffffffffffffffffffffffffffff16815260200190815260200160002060009054906101000a900460ff16905092915050565b600033905090565b611a21806101d96000396000f3fe608060405234801561001057600080fd5b50600436106101005760003560e01c80638ffe0f9c11610097578063b10d6b4111610066578063b10d6b41146102bf578063b52e5bfc146102f3578063bf233efe14610311578063d547741f1461032f57610100565b80638ffe0f9c1461022557806391d1485414610241578063a1be181a14610271578063a217fddf146102a157610100565b80632f2ff15d116100d35780632f2ff15d146101b357806336568abe146101cf5780633a97ff6e146101eb57806378af6c4d1461020957610100565b806301ffc9a7146101055780630f7916d91461013557806321b67d4b14610153578063248a9ca314610183575b600080fd5b61011f600480360381019061011a9190610f80565b61034b565b60405161012c9190610fc8565b60405180910390f35b61013d6103c5565b60405161014a9190610ffc565b60405180910390f35b61016d600480360381019061016891906110da565b6103e9565b60405161017a9190610fc8565b60405180910390f35b61019d60048036038101906101989190611166565b610415565b6040516101aa9190610ffc565b60405180910390f35b6101cd60048036038101906101c89190611193565b610434565b005b6101e960048036038101906101e49190611193565b610456565b005b6101f36104d1565b6040516102009190610ffc565b60405180910390f35b610223600480360381019061021e91906111d3565b6104f5565b005b61023f600480360381019061023a9190611268565b610784565b005b61025b60048036038101906102569190611193565b61080f565b6040516102689190610fc8565b60405180910390f35b61028b600480360381019061028691906112c8565b610879565b6040516102989190610fc8565b60405180910390f35b6102a96108ac565b6040516102b69190610ffc565b60405180910390f35b6102d960048036038101906102d49190611166565b6108b3565b6040516102ea9594939291906113ad565b60405180910390f35b6102fb610bfa565b6040516103089190610ffc565b60405180910390f35b610319610c1e565b6040516103269190610ffc565b60405180910390f35b61034960048036038101906103449190611193565b610c42565b005b60007f7965db0b000000000000000000000000000000000000000000000000000000007bffffffffffffffffffffffffffffffffffffffffffffffffffffffff1916827bffffffffffffffffffffffffffffffffffffffffffffffffffffffff191614806103be57506103bd82610c64565b5b9050919050565b7f3f8b1f7e4f51ec5eb4b7ee863240fa995908f1cfaa5e605aa1fbb36346dff42481565b600061040c84846040516103fe92919061144d565b60405180910390208361080f565b90509392505050565b6000806000838152602001908152602001600020600101549050919050565b61043d82610415565b61044681610cce565b6104508383610ce2565b50505050565b61045e610dd3565b73ffffffffffffffffffffffffffffffffffffffff168173ffffffffffffffffffffffffffffffffffffffff16146104c2576040517f6697b23200000000000000000000000000000000000000000000000000000000815260040160405180910390fd5b6104cc8282610ddb565b505050565b7f75e4869f34342605a4d1875190c3aa7f77683998b63d4ab19634dfd53e33a86081565b7f3f8b1f7e4f51ec5eb4b7ee863240fa995908f1cfaa5e605aa1fbb36346dff42461051f81610cce565b600060016000888152602001908152602001600020600001805461054290611495565b905014610584576040517f08c379a000000000000000000000000000000000000000000000000000000000815260040161057b90611512565b60405180910390fd5b6000600160026000898152602001908152602001600020546105a69190611561565b90508060026000898152602001908152602001600020819055506040518060a0016040528087878080601f016020809104026020016040519081016040528093929190818152602001838380828437600081840152601f19601f8201169050808301925050505050505081526020013373ffffffffffffffffffffffffffffffffffffffff16815260200142815260200182815260200185858080601f016020809104026020016040519081016040528093929190818152602001838380828437600081840152601f19601f820116905080830192505050505050508152506001600089815260200190815260200160002060008201518160000190816106ad9190611770565b5060208201518160010160006101000a81548173ffffffffffffffffffffffffffffffffffffffff021916908373ffffffffffffffffffffffffffffffffffffffff1602179055506040820151816002015560608201518160030155608082015181600401908161071e9190611770565b509050503373ffffffffffffffffffffffffffffffffffffffff16877fd05e2c450b5dc11e2ada4412adc31f1c82ac5e4c57483c659967a1f249b1306a888842868a8a6040516107739695949392919061186f565b60405180910390a350505050505050565b6000801b61079181610cce565b600083836040516107a392919061144d565b604051809103902090506107b78186610ce2565b508473ffffffffffffffffffffffffffffffffffffffff167f86865f32c7ec36722a41f94db77f9acbc7978b6e504cc22b01e7b545c83f434d85856040516108009291906118c6565b60405180910390a25050505050565b600080600084815260200190815260200160002060000160008373ffffffffffffffffffffffffffffffffffffffff1673ffffffffffffffffffffffffffffffffffffffff16815260200190815260200160002060009054906101000a900460ff16905092915050565b60006108a57f3f8b1f7e4f51ec5eb4b7ee863240fa995908f1cfaa5e605aa1fbb36346dff4248361080f565b9050919050565b6000801b81565b6060600080600060606108e67f3f8b1f7e4f51ec5eb4b7ee863240fa995908f1cfaa5e605aa1fbb36346dff4243361080f565b8061091757506109167f93b94e8daf03cd45157f8e84a565c66fb1766933a8a5720efb9165eaec503d093361080f565b5b8061094857506109477f6ea4ce4732b2b95886d1c1b9813867aa7e6c623f80815700b6cfe0afca1887a13361080f565b5b8061097957506109787f75e4869f34342605a4d1875190c3aa7f77683998b63d4ab19634dfd53e33a8603361080f565b5b6109b8576040517f08c379a00000000000000000000000000000000000000000000000000000000081526004016109af90611936565b60405180910390fd5b60006001600088815260200190815260200160002060000180546109db90611495565b905003610a1d576040517f08c379a0000000000000000000000000000000000000000000000000000000008152600401610a14906119a2565b60405180910390fd5b6000600160008881526020019081526020016000206040518060a0016040529081600082018054610a4d90611495565b80601f0160208091040260200160405190810160405280929190818152602001828054610a7990611495565b8015610ac65780601f10610a9b57610100808354040283529160200191610ac6565b820191906000526020600020905b815481529060010190602001808311610aa957829003601f168201915b505050505081526020016001820160009054906101000a900473ffffffffffffffffffffffffffffffffffffffff1673ffffffffffffffffffffffffffffffffffffffff1673ffffffffffffffffffffffffffffffffffffffff1681526020016002820154815260200160038201548152602001600482018054610b4990611495565b80601f0160208091040260200160405190810160405280929190818152602001828054610b7590611495565b8015610bc25780601f10610b9757610100808354040283529160200191610bc2565b820191906000526020600020905b815481529060010190602001808311610ba557829003601f168201915b505050505081525050905080600001518160200151826040015183606001518460800151955095509550955095505091939590929450565b7f6ea4ce4732b2b95886d1c1b9813867aa7e6c623f80815700b6cfe0afca1887a181565b7f93b94e8daf03cd45157f8e84a565c66fb1766933a8a5720efb9165eaec503d0981565b610c4b82610415565b610c5481610cce565b610c5e8383610ddb565b50505050565b60007f01ffc9a7000000000000000000000000000000000000000000000000000000007bffffffffffffffffffffffffffffffffffffffffffffffffffffffff1916827bffffffffffffffffffffffffffffffffffffffffffffffffffffffff1916149050919050565b610cdf81610cda610dd3565b610ecd565b50565b6000610cee838361080f565b610dc857600160008085815260200190815260200160002060000160008473ffffffffffffffffffffffffffffffffffffffff1673ffffffffffffffffffffffffffffffffffffffff16815260200190815260200160002060006101000a81548160ff021916908315150217905550610d65610dd3565b73ffffffffffffffffffffffffffffffffffffffff168273ffffffffffffffffffffffffffffffffffffffff16847f2f8788117e7eff1d82e926ec794901d17c78024a50270940304540a733656f0d60405160405180910390a460019050610dcd565b600090505b92915050565b600033905090565b6000610de7838361080f565b15610ec257600080600085815260200190815260200160002060000160008473ffffffffffffffffffffffffffffffffffffffff1673ffffffffffffffffffffffffffffffffffffffff16815260200190815260200160002060006101000a81548160ff021916908315150217905550610e5f610dd3565b73ffffffffffffffffffffffffffffffffffffffff168273ffffffffffffffffffffffffffffffffffffffff16847ff6391f5c32d9c69d2a47ea670b442974b53935d1edc7fd64eb21e047a839171b60405160405180910390a460019050610ec7565b600090505b92915050565b610ed7828261080f565b610f1a5780826040517fe2517d3f000000000000000000000000000000000000000000000000000000008152600401610f119291906119c2565b60405180910390fd5b5050565b600080fd5b600080fd5b60007fffffffff0000000000000000000000000000000000000000000000000000000082169050919050565b610f5d81610f28565b8114610f6857600080fd5b50565b600081359050610f7a81610f54565b92915050565b600060208284031215610f9657610f95610f1e565b5b6000610fa484828501610f6b565b91505092915050565b60008115159050919050565b610fc281610fad565b82525050565b6000602082019050610fdd6000830184610fb9565b92915050565b6000819050919050565b610ff681610fe3565b82525050565b60006020820190506110116000830184610fed565b92915050565b600080fd5b600080fd5b600080fd5b60008083601f84011261103c5761103b611017565b5b8235905067ffffffffffffffff8111156110595761105861101c565b5b60208301915083600182028301111561107557611074611021565b5b9250929050565b600073ffffffffffffffffffffffffffffffffffffffff82169050919050565b60006110a78261107c565b9050919050565b6110b78161109c565b81146110c257600080fd5b50565b6000813590506110d4816110ae565b92915050565b6000806000604084860312156110f3576110f2610f1e565b5b600084013567ffffffffffffffff81111561111157611110610f23565b5b61111d86828701611026565b93509350506020611130868287016110c5565b9150509250925092565b61114381610fe3565b811461114e57600080fd5b50565b6000813590506111608161113a565b92915050565b60006020828403121561117c5761117b610f1e565b5b600061118a84828501611151565b91505092915050565b600080604083850312156111aa576111a9610f1e565b5b60006111b885828601611151565b92505060206111c9858286016110c5565b9150509250929050565b6000806000806000606086880312156111ef576111ee610f1e565b5b60006111fd88828901611151565b955050602086013567ffffffffffffffff81111561121e5761121d610f23565b5b61122a88828901611026565b9450945050604086013567ffffffffffffffff81111561124d5761124c610f23565b5b61125988828901611026565b92509250509295509295909350565b60008060006040848603121561128157611280610f1e565b5b600061128f868287016110c5565b935050602084013567ffffffffffffffff8111156112b0576112af610f23565b5b6112bc86828701611026565b92509250509250925092565b6000602082840312156112de576112dd610f1e565b5b60006112ec848285016110c5565b91505092915050565b600081519050919050565b600082825260208201905092915050565b60005b8381101561132f578082015181840152602081019050611314565b60008484015250505050565b6000601f19601f8301169050919050565b6000611357826112f5565b6113618185611300565b9350611371818560208601611311565b61137a8161133b565b840191505092915050565b61138e8161109c565b82525050565b6000819050919050565b6113a781611394565b82525050565b600060a08201905081810360008301526113c7818861134c565b90506113d66020830187611385565b6113e3604083018661139e565b6113f0606083018561139e565b8181036080830152611402818461134c565b90509695505050505050565b600081905092915050565b82818337600083830152505050565b6000611434838561140e565b9350611441838584611419565b82840190509392505050565b600061145a828486611428565b91508190509392505050565b7f4e487b7100000000000000000000000000000000000000000000000000000000600052602260045260246000fd5b600060028204905060018216806114ad57607f821691505b6020821081036114c0576114bf611466565b5b50919050565b7f446f63756d656e7420616c726561647920726567697374657265640000000000600082015250565b60006114fc601b83611300565b9150611507826114c6565b602082019050919050565b6000602082019050818103600083015261152b816114ef565b9050919050565b7f4e487b7100000000000000000000000000000000000000000000000000000000600052601160045260246000fd5b600061156c82611394565b915061157783611394565b925082820190508082111561158f5761158e611532565b5b92915050565b7f4e487b7100000000000000000000000000000000000000000000000000000000600052604160045260246000fd5b60008190508160005260206000209050919050565b60006020601f8301049050919050565b600082821b905092915050565b6000600883026116267fffffffffffffffffffffffffffffffffffffffffffffffffffffffffffffffff826115e9565b61163086836115e9565b95508019841693508086168417925050509392505050565b6000819050919050565b600061166d61166861166384611394565b611648565b611394565b9050919050565b6000819050919050565b61168783611652565b61169b61169382611674565b8484546115f6565b825550505050565b600090565b6116b06116a3565b6116bb81848461167e565b505050565b5b818110156116df576116d46000826116a8565b6001810190506116c1565b5050565b601f821115611724576116f5816115c4565b6116fe846115d9565b8101602085101561170d578190505b611721611719856115d9565b8301826116c0565b50505b505050565b600082821c905092915050565b600061174760001984600802611729565b1980831691505092915050565b60006117608383611736565b9150826002028217905092915050565b611779826112f5565b67ffffffffffffffff81111561179257611791611595565b5b61179c8254611495565b6117a78282856116e3565b600060209050601f8311600181146117da57600084156117c8578287015190505b6117d28582611754565b86555061183a565b601f1984166117e8866115c4565b60005b82811015611810578489015182556001820191506020850194506020810190506117eb565b8683101561182d5784890151611829601f891682611736565b8355505b6001600288020188555050505b505050505050565b600061184e8385611300565b935061185b838584611419565b6118648361133b565b840190509392505050565b6000608082019050818103600083015261188a81888a611842565b9050611899602083018761139e565b6118a6604083018661139e565b81810360608301526118b9818486611842565b9050979650505050505050565b600060208201905081810360008301526118e1818486611842565b90509392505050565b7f4163636573732064656e69656400000000000000000000000000000000000000600082015250565b6000611920600d83611300565b915061192b826118ea565b602082019050919050565b6000602082019050818103600083015261194f81611913565b9050919050565b7f446f63756d656e74206e6f7420666f756e640000000000000000000000000000600082015250565b600061198c601283611300565b915061199782611956565b602082019050919050565b600060208201905081810360008301526119bb8161197f565b9050919050565b60006040820190506119d76000830185611385565b6119e46020830184610fed565b939250505056fea2646970667358221220b70fc3aafc7bac25539f87fcdd00568cb1c6387f951e3ae3e1a385e6acab874d64736f6c634300081c0033",
  "linkReferences": {},
  "deployedLinkReferences": {}
}